:100000000C942A001895000018950000189500001F
:10001000189500001895000018950000189500002C
:10002000189500001895000018950000189500001C
:10003000189500001895000018950000189500000C
:1000400018950000189500001895000018950000FC
:10005000189500008FE58DBFC8E3E0E24E2E84E0E6
:100060008EBFD4E0F4E05F2EA89584B7082E877F7A
:1000700084BF88E1992781BD91BDEEEFF3E0A0E652
:10008000B0E088278D933197E9F70E94C20066247B
:10009000BB988FEF81BBBB988CE00E9410010E943F
:1000A000B7000E94B300ECE4F4E00E94AC00A0E6CC
:1000B000B0E0ECE00E945501A0E6B0E0E6E5F4E037
:1000C0000E94120211F00C9467000E9471000E94BD
:1000D000B7000E94B300A0E6B0E00E94A6000C9416
:1000E0005700A0E6B0E0ECE00E945501A0E6B0E0C9
:1000F000ECE5F4E00E94120211F00C9488000E94DA
:10010000B7000E94B300ECE5F4E00E94AC00FFCF22
:10011000A0E6B0E00E94E301ADE6B0E00C930E94DF
:10012000B7000E94B300EDE6F0E0A8E0B4E00E9462
:100130009E010E94A400ADE6B0E08C9182BB0C94BD
:1001400071000895F894FFCFA8E0B4E08D91882362
:1001500011F060D0FBCF08950E947701802D11F03F
:1001600059D0FACF089582E05BD009D005C081E074
:1001700057D005D080E854C080E852D0089583E07D
:100180009927A1C08AEF90E00E946301A79AA69ADE
:10019000A59AA49AA39AA29AAA9885E090E00E94B0
:1001A0006301AB98AF98AE98AD9AAC9AAB9AEF93C7
:1001B000FF93E5E1F0E00E943101FF91EF91AB98F0
:1001C0007FD0AB9AEF93FF93E5E1F0E00E9431011D
:1001D000FF91EF91AB9874D0AB9AEF93FF93E5E169
:1001E000F0E00E943101FF91EF91AB9869D0AC989B
:1001F000AB9AEF93FF93E5E1F0E00E943101FF91AC
:10020000EF91AB985DD088E20BD08EE009D086E00C
:1002100007D00895AA9A829505D004D051D00895A8
:10022000AA98F9CF859510F4AC9A01C0AC98859541
:1002300010F4AD9A01C0AD98859510F4AE9A01C046
:10024000AE98859510F4AF9A01C0AF98AB9AEF9332
:10025000FF93E5E1F0E00E943101FF91EF91AB984F
:1002600008953197F1F70895689462F80895E89435
:1002700062F808958F939F938FE290E00197F1F7D2
:100280009F918F91089529E0B39BFECFF3DFF2DFBA
:10029000F1DF8894B39908942A9519F0879597957A
:1002A000F6CF80950895A8E0B4E0EDDF8D3029F019
:1002B000EE23D9F38D93EA95F8CF88278C93089590
:1002C00081E090E000C0EF93FF93EE27E82BE92B4D
:1002D00031F0EAEFF0E03197F1F70197D1F7FF91B4
:1002E000EF91089501911191219130810895C89560
:1002F000319600200895040F151F261F371F0895FB
:10030000000F111F221F331F08950095109520958F
:1003100030950F5F1F4F2F4F3F4F08950191108170
:100320000FC00E9472010EC00E94720110C00191A4
:10033000108117FF05C03FEF2FEF04C00081112788
:100340002227332737FF03C0E0DF8DE28D93CF9262
:10035000DF92EF92AA24BB24CC24DD24EE2440E2D9
:10036000EAE0FF2755E093E38081890F87FD9F70C6
:1003700083FD907F891B81935A95A9F7C1DFAA1C41
:10038000BB1CCC1CDD1CEE1C4A9551F7E894EFE039
:10039000FF2782910BD0EB30E0F71EF068948A2D96
:1003A00009D04D93EF90DF90CF900895982F8295CC
:1003B00001D0892F8F70805D26F0803309F4089575
:1003C00068948D93089500271127222733271DD085
:1003D0008A3328F4803318F005D015D0F9CF0EF405
:1003E00094CF089580538F93402F512F622F732FF6
:1003F00087DF86DF80DF84DF8F919927080F191F41
:10040000291F391F08958D910895E894FCDF8032EB
:10041000E9F38B32D9F38930C9F38D3211F4689442
:10042000F2CF0895689401C0E894AF93BF938D9183
:1004300016F0919103C00E947701902D891718F052
:1004400011F48823A1F7BF91AF910895537461729D
:1004500074696E67000053746172740053746F7036
:0204600000009A
:00000001FF
