:100000000C942A001895000018950000189500001F
:10001000189500001895000018950000189500002C
:10002000189500001895000018950000189500001C
:10003000189500001895000018950000189500000C
:1000400018950000189500001895000018950000FC
:10005000189500008FE58DBFC8E3E0E24E2E84E0E6
:100060008EBFD4E0F4E05F2EA89584B7082E877F7A
:1000700084BF88E1992781BD91BDEEEFF3E0A0E652
:10008000B0E088278D933197E9F76624D1988B9A51
:100090008B9A9398A9E3B0E08C9181FBA1E6B0E044
:1000A000882780F98C9300916100003011F00C9446
:1000B0005B000C944A00E0EFF2E00E94E4000E9432
:1000C000EB00E1E0F0E00E94BC00E6EFF2E00E940D
:1000D000E4000E94EB00E1E0F0E00E94BC00A2E638
:1000E000B0E0E0E0F3E00E940B01A2E6B0E00E9485
:1000F000F1000E94EB00E1E0F0E00E94BC00A2E60B
:10010000B0E0E4E0F3E00E940B01A2E6B0E00E9460
:10011000F1000E94EB0080E080936000009160009D
:100120000F3018F011F00C94AB00E0E6F0E0A8E01E
:10013000B4E00E9433010E94EF000E94EB00E1E076
:10014000F0E00E94BC00A0E6B0E08C918F5F8C9341
:1001500010F40C948E00A2E6B0E0EAE0F3E00E9416
:100160000B01A2E6B0E00E94F1000E94EB00FFCF7D
:100170000C944A00F894FFCF88EE93E038D0319782
:10018000D9F708953197F1F70895689462F80895C2
:10019000E89462F808958F939F938FE290E001971F
:1001A000F1F79F918F91089580952AE090E008944F
:1001B00010F0939802C0939A0000EDDFECDF969563
:1001C00087952A95A9F708950E941101802D11F0B5
:1001D000EBDFFACF08958DE0E7DF8AE0E5CFA8E016
:1001E000B4E08D91882311F0DFDFFBCF0895EF930A
:1001F000FF93EE27E82BE92B31F0EAEFF0E031979F
:10020000F1F70197D1F7FF91EF91089501911191C5
:100210002191308108950E9411010D920020D9F79B
:100220000895C895319600200895000F111F221FD0
:10023000331F089500951095209530950F5F1F4F3F
:100240002F4F3F4F0895019110810FC00E9406016A
:100250000EC00E94060110C00191108117FF05C059
:100260003FEF2FEF04C0008111272227332737FFEC
:1002700003C0E0DF8DE28D93CF92DF92EF92AA244C
:10028000BB24CC24DD24EE2440E2EAE0FF2755E045
:1002900093E38081890F87FD9F7083FD907F891B89
:1002A00081935A95A9F7C1DFAA1CBB1CCC1CDD1C8D
:1002B000EE1C4A9551F7E894EFE0FF2782910BD0AE
:1002C000EB30E0F71EF068948A2D09D04D93EF9043
:1002D000DF90CF900895982F829501D0892F8F704D
:1002E000805D26F0803309F4089568948D93089515
:1002F0004D6963726F00436F6E74726F6C6572004C
:100300004156520053746172740053746F70000050
:00000001FF
